{
  "_format": "hh-sol-artifact-1",
  "contractName": "Chai",
  "sourceName": "contracts/Chai.sol",
  "abi": [
    {
      "inputs": [],
      "stateMutability": "payable",
      "type": "constructor"
    },
    {
      "inputs": [],
      "name": "GetTransaction",
      "outputs": [
        {
          "components": [
            {
              "internalType": "string",
              "name": "Name",
              "type": "string"
            },
            {
              "internalType": "string",
              "name": "Message",
              "type": "string"
            },
            {
              "internalType": "uint256",
              "name": "Timestamp",
              "type": "uint256"
            },
            {
              "internalType": "address",
              "name": "Sender",
              "type": "address"
            }
          ],
          "internalType": "struct Chai.List[]",
          "name": "",
          "type": "tuple[]"
        }
      ],
      "stateMutability": "view",
      "type": "function"
    },
    {
      "inputs": [],
      "name": "TransactionCount",
      "outputs": [
        {
          "internalType": "uint256",
          "name": "",
          "type": "uint256"
        }
      ],
      "stateMutability": "view",
      "type": "function"
    },
    {
      "inputs": [
        {
          "internalType": "string",
          "name": "name",
          "type": "string"
        },
        {
          "internalType": "string",
          "name": "message",
          "type": "string"
        }
      ],
      "name": "TransferMoney",
      "outputs": [],
      "stateMutability": "payable",
      "type": "function"
    },
    {
      "inputs": [],
      "name": "transactionCount",
      "outputs": [
        {
          "internalType": "uint256",
          "name": "",
          "type": "uint256"
        }
      ],
      "stateMutability": "view",
      "type": "function"
    }
  ],
  "bytecode": "0x608060405233600160006101000a81548173ffffffffffffffffffffffffffffffffffffffff021916908373ffffffffffffffffffffffffffffffffffffffff160217905550610bd6806100546000396000f3fe60806040526004361061003f5760003560e01c80637f10540214610044578063855e1ef81461006f578063b77bf6001461009a578063cd4872f3146100c5575b600080fd5b34801561005057600080fd5b506100596100e1565b6040516100669190610455565b60405180910390f35b34801561007b57600080fd5b506100846100eb565b604051610091919061067c565b60405180910390f35b3480156100a657600080fd5b506100af6102ce565b6040516100bc9190610455565b60405180910390f35b6100df60048036038101906100da91906107e7565b6102d4565b005b6000600254905090565b60606000805480602002602001604051908101604052809291908181526020016000905b828210156102c557838290600052602060002090600402016040518060800160405290816000820180546101429061088e565b80601f016020809104026020016040519081016040528092919081815260200182805461016e9061088e565b80156101bb5780601f10610190576101008083540402835291602001916101bb565b820191906000526020600020905b81548152906001019060200180831161019e57829003601f168201915b505050505081526020016001820180546101d49061088e565b80601f01602080910402602001604051908101604052809291908181526020018280546102009061088e565b801561024d5780601f106102225761010080835404028352916020019161024d565b820191906000526020600020905b81548152906001019060200180831161023057829003601f168201915b50505050508152602001600282015481526020016003820160009054906101000a900473ffffffffffffffffffffffffffffffffffffffff1673ffffffffffffffffffffffffffffffffffffffff1673ffffffffffffffffffffffffffffffffffffffff16815250508152602001906001019061010f565b50505050905090565b60025481565b6001600260008282546102e791906108ee565b92505081905550600160009054906101000a900473ffffffffffffffffffffffffffffffffffffffff1673ffffffffffffffffffffffffffffffffffffffff166108fc349081150290604051600060405180830381858888f19350505050158015610356573d6000803e3d6000fd5b50600060405180608001604052808481526020018381526020014281526020013373ffffffffffffffffffffffffffffffffffffffff16815250908060018154018082558091505060019003906000526020600020906004020160009091909190915060008201518160000190816103ce9190610ace565b5060208201518160010190816103e49190610ace565b506040820151816002015560608201518160030160006101000a81548173ffffffffffffffffffffffffffffffffffffffff021916908373ffffffffffffffffffffffffffffffffffffffff16021790555050505050565b6000819050919050565b61044f8161043c565b82525050565b600060208201905061046a6000830184610446565b92915050565b600081519050919050565b600082825260208201905092915050565b6000819050602082019050919050565b600081519050919050565b600082825260208201905092915050565b60005b838110156104d65780820151818401526020810190506104bb565b60008484015250505050565b6000601f19601f8301169050919050565b60006104fe8261049c565b61050881856104a7565b93506105188185602086016104b8565b610521816104e2565b840191505092915050565b6105358161043c565b82525050565b600073ffffffffffffffffffffffffffffffffffffffff82169050919050565b60006105668261053b565b9050919050565b6105768161055b565b82525050565b6000608083016000830151848203600086015261059982826104f3565b915050602083015184820360208601526105b382826104f3565b91505060408301516105c8604086018261052c565b5060608301516105db606086018261056d565b508091505092915050565b60006105f2838361057c565b905092915050565b6000602082019050919050565b600061061282610470565b61061c818561047b565b93508360208202850161062e8561048c565b8060005b8581101561066a578484038952815161064b85826105e6565b9450610656836105fa565b925060208a01995050600181019050610632565b50829750879550505050505092915050565b600060208201905081810360008301526106968184610607565b905092915050565b6000604051905090565b600080fd5b600080fd5b600080fd5b600080fd5b7f4e487b7100000000000000000000000000000000000000000000000000000000600052604160045260246000fd5b6106f4826104e2565b810181811067ffffffffffffffff82111715610713576107126106bc565b5b80604052505050565b600061072661069e565b905061073282826106eb565b919050565b600067ffffffffffffffff821115610752576107516106bc565b5b61075b826104e2565b9050602081019050919050565b82818337600083830152505050565b600061078a61078584610737565b61071c565b9050828152602081018484840111156107a6576107a56106b7565b5b6107b1848285610768565b509392505050565b600082601f8301126107ce576107cd6106b2565b5b81356107de848260208601610777565b91505092915050565b600080604083850312156107fe576107fd6106a8565b5b600083013567ffffffffffffffff81111561081c5761081b6106ad565b5b610828858286016107b9565b925050602083013567ffffffffffffffff811115610849576108486106ad565b5b610855858286016107b9565b9150509250929050565b7f4e487b7100000000000000000000000000000000000000000000000000000000600052602260045260246000fd5b600060028204905060018216806108a657607f821691505b6020821081036108b9576108b861085f565b5b50919050565b7f4e487b7100000000000000000000000000000000000000000000000000000000600052601160045260246000fd5b60006108f98261043c565b91506109048361043c565b925082820190508082111561091c5761091b6108bf565b5b92915050565b60008190508160005260206000209050919050565b60006020601f8301049050919050565b600082821b905092915050565b6000600883026109847fffffffffffffffffffffffffffffffffffffffffffffffffffffffffffffffff82610947565b61098e8683610947565b95508019841693508086168417925050509392505050565b6000819050919050565b60006109cb6109c66109c18461043c565b6109a6565b61043c565b9050919050565b6000819050919050565b6109e5836109b0565b6109f96109f1826109d2565b848454610954565b825550505050565b600090565b610a0e610a01565b610a198184846109dc565b505050565b5b81811015610a3d57610a32600082610a06565b600181019050610a1f565b5050565b601f821115610a8257610a5381610922565b610a5c84610937565b81016020851015610a6b578190505b610a7f610a7785610937565b830182610a1e565b50505b505050565b600082821c905092915050565b6000610aa560001984600802610a87565b1980831691505092915050565b6000610abe8383610a94565b9150826002028217905092915050565b610ad78261049c565b67ffffffffffffffff811115610af057610aef6106bc565b5b610afa825461088e565b610b05828285610a41565b600060209050601f831160018114610b385760008415610b26578287015190505b610b308582610ab2565b865550610b98565b601f198416610b4686610922565b60005b82811015610b6e57848901518255600182019150602085019450602081019050610b49565b86831015610b8b5784890151610b87601f891682610a94565b8355505b6001600288020188555050505b50505050505056fea2646970667358221220f7c392ce2c4c8cfdaf23ea85e355c8df6442d4700a766d819ab6fa43f7359bf564736f6c63430008130033",
  "linkReferences": {},
  "deployedLinkReferences": {}
}